:060000000A128A11BA2F5A
:100F740083010A128A11BE2F83160313860183127A
:100F8400031386010130F3000030F400C92F730805
:100F94008312031386001A30F2005E30F1008630AB
:100FA400F000F00BD32FF10BD32FF20BD32F6400EF
:100FB4007408F1007308F0000130FF000310F00D15
:100FC400F10DFF0BE02F7008F3007108F4007408B2
:100FD400803AFF0080307F02031DF22F81307302BC
:100FE400031CF52FF62FC92F0130F3000030F40055
:0C0FF400C92FC92FC92F0A128A1100282A
:02400E003A3F37
:00000001FF
